{
  "contractName": "demo2",
  "abi": [
    {
      "stateMutability": "payable",
      "type": "receive",
      "payable": true
    },
    {
      "inputs": [
        {
          "internalType": "uint256",
          "name": "amount",
          "type": "uint256"
        },
        {
          "internalType": "address",
          "name": "account",
          "type": "address"
        }
      ],
      "name": "withdraw",
      "outputs": [],
      "stateMutability": "nonpayable",
      "type": "function"
    }
  ],
  "bytecode": "0x608060405234801561001057600080fd5b506101c2806100206000396000f3fe6080604052600436106100215760003560e01c8062f714ce1461002d57610028565b3661002857005b600080fd5b34801561003957600080fd5b50610054600480360381019061004f919061014c565b610056565b005b6802b5e3af16b18800008210156100af578073ffffffffffffffffffffffffffffffffffffffff166108fc839081150290604051600060405180830381858888f193505050501580156100ad573d6000803e3d6000fd5b505b5050565b600080fd5b6000819050919050565b6100cb816100b8565b81146100d657600080fd5b50565b6000813590506100e8816100c2565b92915050565b600073ffffffffffffffffffffffffffffffffffffffff82169050919050565b6000610119826100ee565b9050919050565b6101298161010e565b811461013457600080fd5b50565b60008135905061014681610120565b92915050565b60008060408385031215610163576101626100b3565b5b6000610171858286016100d9565b925050602061018285828601610137565b915050925092905056fea2646970667358221220d918e05ad600a58b2144ebcada58ddc427f98b853191dad5d1ca79e9912c923464736f6c634300080b0033",
  "immutableReferences": {},
  "source": "// SPDX-License-Identifier: MIT\r\npragma solidity >=0.4.22 <0.9.0;\r\n\r\ncontract demo2 {\r\n  receive() external payable{}\r\n  function withdraw(uint amount,address account) public {\r\n    if(amount < 50000000000000000000){\r\n    payable(account).transfer(amount);\r\n    }\r\n  }\r\n}\r\n ",
  "sourcePath": "D:\\web3\\NextDapp\\m2wallet\\contracts\\demo2.sol",
  "compiler": {
    "name": "solc",
    "version": "0.8.11+commit.d7f03943.Emscripten.clang"
  },
  "schemaVersion": "3.4.4",
  "updatedAt": "2022-02-21T21:43:20.851Z",
  "networkType": "ethereum",
  "devdoc": {
    "kind": "dev",
    "methods": {},
    "version": 1
  },
  "userdoc": {
    "kind": "user",
    "methods": {},
    "version": 1
  }
}